:04000000E3EF3EF0FC
:021400000000EA
:107DC60000013FEF3FF0016E9EA8ECEF3EF0EEEFB4
:107DD6003EF0E7EF3EF001C0ADFF9E981200026E46
:107DE600000E0F01416FE00E426F020E456F02C09A
:107DF60046FF080E406F720EE6EC3EF0200EE6ECF3
:107E06003EF00F0140B70AEF3FF00CEF3FF004EFF2
:107E16003FF06E0EE6EC3EF0200EE6EC3EF0120071
:107E2600000E056E000E046E2FEF3FF0000E076E7B
:107E3600000E066E064A072A07BE2BEF3FF0F40E29
:107E4600065C010E0758D8A02BEF3FF02DEF3FF050
:107E56001DEF3FF0044A052A0150045C0550800AD4
:107E6600036E0250800A0358D8A03CEF3FF03EEF65
:107E76003FF019EF3FF01200240EAC6E900EAB6E81
:107E8600810EAF6E080E936E800E946E8A966F8E7C
:107E96006EAE50EF3FF052EF3FF04BEF3FF06F8882
:107EA600779E779C040E706EA40E716E040E726E31
:107EB6008A96738A6F9E6EBE63EF3FF065EF3FF062
:107EC6005EEF3FF09EAA6AEF3FF06CEF3FF065EF82
:107ED6003FF0490EE6EC3EF0200EE6EC3EF0AE50EA
:107EE600F2EC3EF0000E026E640E016E13EC3FF0F3
:0A7EF6009E9A65EF3FF000EF00F0E8
:00000001FF
