:04000000DEEF3EF001
:021400000000EA
:107DBC0000013CEF3FF0016E9EA8E7EF3EF0E9EFCB
:107DCC003EF0E2EF3EF001C0ADFF9E981200036E54
:107DDC00000E0F01416FE00E426F020E456F03C0A3
:107DEC0046FF02C047FF080E406F720EE1EC3EF0FA
:107DFC00200EE1EC3EF00F0140B707EF3FF009EF2A
:107E0C003FF001EF3FF06E0EE1EC3EF0200EE1ECA6
:107E1C003EF01200000E056E000E046E2CEF3FF0CB
:107E2C00000E076E000E066E064A072A07BE28EFE4
:107E3C003FF0F40E065C010E0758D8A028EF3FF077
:107E4C002AEF3FF01AEF3FF0044A052A0150045C78
:107E5C000550800A036E0250800A0358D8A039EFEF
:107E6C003FF03BEF3FF016EF3FF01200240EAC6EEC
:107E7C00900EAB6E810EAF6E080E936E800E946EEC
:107E8C008A966F8E6EAE4DEF3FF04FEF3FF048EF9E
:107E9C003FF06F88779E779C040E706EA40E716E07
:107EAC00040E726E8A96738A6F9E6EBE60EF3FF000
:107EBC0062EF3FF05BEF3FF09EAA67EF3FF069EF98
:107ECC003FF062EF3FF0AE50730EE1EC3EF0200E4F
:107EDC00E1EC3EF0620E026E610EEDEC3EF0000E37
:107EEC00026E640E016E10EC3FF09E9A62EF3FF052
:047EFC0000EF00F0A3
:00000001FF
