:0400000019EF3FF0C5
:021400000000EA
:107E320000011CEF3FF0240EAC6E900EAB6E810E73
:107E4200AF6E080E936E800E946E8A969EA82CEFEB
:107E52003FF02EEF3FF027EF3FF0520EAD6E9E98AF
:107E62006F8E6EAE37EF3FF039EF3FF032EF3FF0FB
:107E72006F88779E779C040E706EA40E716E040E4E
:107E8200726E738A6F9E6EBE49EF3FF04BEF3FF00A
:107E920044EF3FF0600E606E60AE52EF3FF054EF81
:107EA2003FF04DEF3FF09E989EA85AEF3FF05CEFF7
:107EB2003FF055EF3FF066CFADFF9E989EA864EF6E
:107EC2003FF066EF3FF05FEF3FF067CFADFF9E9868
:107ED2009EA86EEF3FF070EF3FF069EF3FF00A0EA1
:107EE200AD6E9E989EA878EF3FF07AEF3FF073EF69
:0E7EF2003FF00D0EAD6E4BEF3FF000EF00F0D5
:00000001FF
