:040000002DEF3FF0B1
:021400000000EA
:107E5A00000130EF3FF0240EAC6E900EAB6E810E37
:107E6A00AF6E080E936E800E946E8A969EA840EFAF
:107E7A003FF042EF3FF03BEF3FF0520EAD6E9E985F
:107E8A006F8E6EAE4BEF3FF04DEF3FF046EF3FF097
:107E9A006F88779E779C040E706EA40E716E040E26
:107EAA00726E738A6F9E6EBE5DEF3FF05FEF3FF0BA
:107EBA0058EF3FF0600E606E60AE66EF3FF068EF1D
:107ECA003FF061EF3FF09E989EA86EEF3FF070EF93
:107EDA003FF069EF3FF066CFADFF9E989EA878EF1E
:107EEA003FF07AEF3FF073EF3FF00A0EAD6E5FEFAF
:067EFA003FF000EF00F074
:00000001FF
